:020000040800F2
:1000000040160020AD0100086F18000827170008EF
:100010006D1800084F030008D11C00080000000004
:10002000000000000000000000000000951900081A
:100030002D0600080000000081180008971900082C
:10004000C7010008C7010008C7010008C701000870
:10005000C7010008C7010008C7010008C701000860
:10006000C7010008C7010008C7010008C701000850
:10007000C7010008C7010008C7010008C701000840
:10008000C7010008C7010008C70100080000000000
:10009000000000000000000000000000C701000890
:1000A000C70100083D1A0008C7010008C701000881
:1000B000C7010008C7010008C7010008C701000800
:1000C000C7010008C7010008C7010008C7010008F0
:1000D000C7010008C7010008C701000800000000B0
:1000E000C7010008C7010008C701000800000000A0
:1000F000000000000000000000000000C701000830
:1001000000000000C7010008C7010008C70100087F
:1001100000000000000000000000000000000000DF
:10012000C7010008C7010008C7010008C70100088F
:10013000C7010008000000000000000000000000EF
:10014000000000000000000000000000C7010008DF
:10015000C7010008C7010008C7010008C70100085F
:10016000C7010008C70100080000000000000000EF
:10017000000000000000000000000000000000007F
:1001800000000000C701000800000000000000009F
:10019000C7010008C7010008DFF80CD000F09AF88A
:1001A00000480047012D00084016002006488047FF
:1001B00006480047FEE7FEE7FEE7FEE7FEE7FEE74C
:1001C000FEE7FEE7FEE7FEE72D1A000899010008AA
:1001D0002DE9F05F0546002092469B46884606467C
:1001E000814640241BE0284641464746224600F00F
:1001F00061F853465A46C01A914110D31146184629
:10020000224600F048F82D1A67EB01084F462246B7
:100210000120002100F03FF817EB00094E41201E9D
:10022000A4F10104DFDC484631462A464346BDE8D6
:10023000F09F10B5431A934209D28318881803E03F
:1002400010F8011D03F8011D521EF9D210BD40EA3D
:1002500001039B0703D009E008C9121F08C0042A44
:10026000FAD203E011F8013B00F8013B521EF9D22B
:1002700010BDD2B201E000F8012B491EFBD270473D
:100280000022F6E710B513460A4604461946FFF762
:10029000F0FF204610BD202A04DB203A00FA02F1CC
:1002A000002070479140C2F1200320FA03F3194364
:1002B00090407047202A04DB203A21FA02F0002106
:1002C000704721FA02F3D040C2F120029140084366
:1002D00019467047064C074D06E0E06840F0010300
:1002E00094E8070098471034AC42F6D3FFF758FF64
:1002F000B44C0008D44C000870B58C1810F8015BA1
:1003000015F0070301D110F8013B2A1106D110F8AE
:10031000012B03E010F8016B01F8016B5B1EF9D1B2
:100320002B0705D40023521E0DD401F8013BFAE738
:1003300010F8013BCB1A921C03E013F8015B01F8A3
:10034000015B521EF9D5A142D8D3002070BDFEE753
:10035000F8B51D4F0D4606460024062219493846B9
:10036000009401F0D9FC174801784278C378114312
:1003700082781A43114302791143427911430CD117
:10038000047008214170DC218170C47004714471D3
:1003900001460622384601F005FD0A4F0B48403F52
:1003A0000422BE70C7E90E056946094801F0FAFC4F
:1003B00004226946074801F0F5FC03F035FA3C7069
:1003C000F8BD0000040100200020410078563412DE
:1003D00000384100003041002DE9F047564C2078AC
:1003E000062823D0A07843F2080101EB401001F069
:1003F00071FC222805D0002344220221A07803F0BA
:1004000047FE012602F0D4FD4B4D94F90010ED1D7E
:100410000027C0B2B0464FF0030AA5F10409052930
:100420005FD2DFE801F0060D1F3556000520BDE85C
:10043000F0872F706F70AF70EF7003F00FFB78E0F4
:1004400002284BD13DA001F0D3FCE06B017C297068
:10045000417C6970817CA970C07CE87003F0F8FB76
:10046000022034E0052802D006280FD036E039A05B
:1004700001F0BEFC01F01EFF10B1606A80474EE043
:1004800003F0D2F9E06A804727702AE037A04CE0F9
:10049000A0690426411C24D0E169B1EB500F20D99A
:1004A00038A001F0A5FC297889F80010697889F84E
:1004B0000110A97889F80210E97889F80310A06B77
:1004C000401CA06303F0C4FB03F0AEF904202070CD
:1004D00007E00426052806D0062825D001F034FFC1
:1004E00006463046A3E7677099F800102A78484618
:1004F00091420CD141786A78914208D18178AA78EA
:10050000914204D199F80300E978884204D0A06AA6
:100510000326804723A000E026A001F069FC03F039
:1005200083F984F800A0DCE727A001F061FC03F068
:100530007BF984F80080D4E7C40000203E20526597
:10054000636569766520444843505F4F464645528F
:100550000D0A00003E2052656365697665204448B7
:1005600043505F41434B0D0A000000003E2052659E
:10057000636569766520444843505F4E41434B0DA7
:100580000A0000003E204D61696E7461696E73203F
:100590007468652049502061646472657373200D2E
:1005A0000A0000003E4950206368616E6765642E52
:1005B0000D0A00003E495020697320636F6E746914
:1005C0006E7565642E0D0A003E205265636569767E
:1005D0006520444843505F4E41434B2C204661699F
:1005E0006C656420746F206D61696E7461696E2042
:1005F00069700D0A0000000010B5034CA07801F0EE
:10060000DBFE0620207010BDC40000200248C16936
:10061000491CC16170470000C40000200248816885
:10062000491C8160704700001401002070470000E1
:100630002DE9F84FDFF8B8A10022012403254FF07F
:100640000F090AF1040BAAF1040E00BF0B6804FAAB
:1006500002F63340B34273D10F7907F00307012F3D
:1006600001D0022F16D187684FEA420805FA08FC2C
:1006700027EA0C07D1F80CC00CFA08FC4CEA070C6E
:10068000C0F808C04768B7430E79C6F30016964015
:100690003E4346600E79F643B6070DD0C768560054
:1006A00005FA06FC27EA0C07D1F808C00CFA06FC8C
:1006B0004CEA070CC0F80CC00E7906F00306022EB7
:1006C00010D1D60800EB8608D8F8206057074FEA0B
:1006D000D76C09FA0CF7BE430F6907FA0CF73743DA
:1006E000C8F8207006684FEA420C05FA0CF7BE43C2
:1006F0000F7907F0030707FA0CF7374307604E68D6
:1007000016F4403F6DD03B4E376847F48047376062
:10071000366822F0030706F480460096364E07EB53
:10072000060CDCF8086897073F0F09FA07F826EA75
:100730000806DFF8C880404503D14FF000081EE0EE
:100740004FE0DFF8BC80404502D14FF0010816E0D1
:10075000DFF8B080404502D14FF002080FE0DFF82B
:10076000A880404502D14FF0030808E0DFF89C80E4
:10077000404502D14FF0040801E04FF0070808FAA5
:1007800007F848EA0608CCF80888DAF80060574607
:10079000D1F804C09E435FEACC2C00D51E433E60D6
:1007A000DBF800605F46D1F804C09E435FEA8C2C02
:1007B00000D51E433E60DEF800607746D1F804C0E5
:1007C0009E435FEA8C3C00D51E433E60084F083FC5
:1007D0003E68D1F804C09E435FEACC3C00D51E437E
:1007E0003E60521C102AFFF431AFBDE8F88F0000C4
:1007F000083C014044380240003001400000024003
:100800000004024000080240000C024000100240B8
:100810000AB1816170470904FBE700000148806864
:10082000704700006C000020024881680278114483
:10083000816070476C0000200B4810B5016841F4DE
:1008400000710160016841F480610160016841F458
:1008500080710160032000F071F8002000F006F8BC
:1008600000F024F8002010BD003C024070B50D4D92
:1008700004464FF47A712878B1FBF0F00A49096810
:10088000B1FBF0F000F093FC48B9102C07D2002225
:100890002146501E00F032F800206C6070BD01202F
:1008A00070BD00006C000020780000200B4882B072
:1008B000016841F480410160006800F480400090CC
:1008C0000648001F016841F080510160006800F097
:1008D00080500090072002B000F030B84438024049
:1008E000002809DB00F01F0201219140400980002F
:1008F00000F1E020C0F8001170470000F0B40E4B8A
:100900001B680C46C3F30223C3F10705042D00D96D
:100910000425191D072901D2002300E0DB1E012652
:1009200006FA05F1491E214099409E40761E164068
:100930003143F0BC01F06CBA0CED00E0064900F068
:10094000070208684FF6FF03184040EA0220034AF6
:1009500010430860704700000CED00E00000FA054D
:100960002DE9F0470E46050065D0DFF81481D8F870
:100970000000F7B200F00700B04207D288F800701C
:10098000D8F8000000F00700B04254D128683D4C70
:10099000810712D5400703D5206840F4E05020605D
:1009A0002878000703D5206840F460402060206864
:1009B000A96820F0F000084320602878C0072DD0F7
:1009C000304968680839012812D0022813D003285A
:1009D00011D00968890700292DDA216821F0030167
:1009E00001432160FFF71AFF814641F2883A0EE089
:1009F00009688903EFE709688901ECE7FFF70EFF53
:100A0000A0EB0901514502D90320BDE8F087206819
:100A1000696800F00C00B0EB810FEFD1D8F800103E
:100A2000404601F00701B14207D90770006800F0A5
:100A30000700B04201D00120E7E72878400705D53C
:100A40002068E96820F4E050084320602878000717
:100A500006D52068296920F4604040EAC100206082
:100A600000F038F82168084AC1F30311515CC8400E
:100A70000649086006480068FFF7F8FE0020C4E752
:100A8000003C024008380240644C00087800002016
:100A9000700000200448054900680968044AC1F351
:100AA0008221515CC840704778000020083802401D
:100AB000744C00080448054900680968044AC1F3F9
:100AC0004231515CC840704778000020083802402D
:100AD000744C0008154810B5006810F00C0214485A
:100AE00013D04110042A0FD0082A0ED10F4C241F16
:100AF0002268236802F03F025B0207D52068C0F33A
:100B00008810A0FB010106E0084610BD2168C1F372
:100B10008811A1FB00010023FFF75AFB2168C1F3F4
:100B20000141491C4900B0FBF1F010BD08380240FA
:100B30000024F4002DE9F84F04006ED02078DFF88F
:100B40004C93C007A9F104054AD009F104000168DB
:100B5000C1F38101012908D00068C0F38100022897
:100B60000AD1D9F80000400206D52868800337D59D
:100B700060680028E1D033E06068B0F5803F10D0B5
:100B8000B0F5A02F286810D020F4803028602868A5
:100B900020F4802028606068A8B1FFF73FFE064679
:100BA0000DE0286840F48030F4E740F480202860AD
:100BB000F7E700BFFFF732FE801B642873D8286870
:100BC0008003F7D50CE0FFF729FE064605E000BFDD
:100BD000FFF724FE801B6428F0D828688003F7D430
:100BE0002078DFF8AC8280074FF0000A3ED5A74896
:100BF000001D016811F00C0F08D00068C0F38100DF
:100C000002280BD1D9F80000400207D428688007D9
:100C100016D5E068012800D112E033E1E068B8B1F0
:100C20000120C8F80000FFF7F9FD064605E000BF07
:100C3000FFF7F4FD801B0228C0D828688007F7D58D
:100C40002868216920F0F80040EAC10028600DE022
:100C5000C8F800A0FFF7E2FD064604E0FFF7DEFD5E
:100C6000801B02281FD828688007F7D42078000747
:100C700022D5864F87486169703771B101210160C3
:100C8000FFF7CCFD064604E0FFF7C8FD801B0228F5
:100C900009D838688007F7D50EE0C0F800A0FFF744
:100CA000BDFD064605E082E0FFF7B8FD801B022887
:100CB0007DD838688007F7D42078400768D5DFF8FA
:100CC000CCB100270BF13C0BDBF80000C0000BD4CB
:100CD000DBF8001041F08051CBF80010DBF8000089
:100CE000012700F0805000906B4E3068C00510D492
:100CF000306840F480703060FFF790FD009005E0B0
:100D0000FFF78CFD0099401A022850D83068C005C2
:100D1000F6D55E4EA0686C3601280FD005283068E5
:100D200010D020F001003060306820F00400306006
:100D3000A068B8B1FFF772FD00900FE0306840F096
:100D40000100F4E740F004003060F7E7FFF766FDCC
:100D50000099411A41F28830814266D83068800794
:100D6000F4D50EE0FFF75AFD009007E0FFF756FDBF
:100D70000099411A41F28830814256D83068800784
:100D8000F4D42FB1DBF8001021F08051CBF8001023
:100D9000A069C8B33D49091D0968C1F38101022951
:100DA0004AD00228504607D0C8F8600000E03CE076
:100DB000FFF734FD04463BE04746C8F86000FFF704
:100DC0002DFD064605E000BFFFF728FD801B022829
:100DD0002BD828688001F7D4D4E907010843A16A19
:100DE0002E4A490802EB0141626A41EA8211084336
:100DF00094F82C1040EA0161C9F80010012038660F
:100E0000FFF70CFD044606E03EE000BFFFF706FDDD
:100E1000001B022809D828688001F7D534E000BFFC
:100E2000FFF7FCFC001B022802D90320BDE8F88F65
:100E300028688001F4D427E00128F7D0D9F8000011
:100E4000E26900F4800191421CD1226A00F03F0166
:100E5000914217D147F6C071626A0140B1EB821F1F
:100E600010D1A26A4FF0FF3300F4403103EB52027D
:100E7000B1EB024F06D194F82C1000F07060B0EB8B
:100E8000016F01D00120D1E70020CFE704380240F4
:100E900000004742800E4742007000400000FFFF04
:100EA00090F85100704770B5040009D0606A0025C1
:100EB00040B125616561A56294F8510040B10CE034
:100EC000012070BD6068B0F5827FF4D0E561F2E783
:100ED00084F85050204600F045F8022084F8510074
:100EE0002068016821F040010160A088218900F498
:100EF000827001F404410843A18901F400610843B0
:100F0000217C01F002010843217D01F00101084329
:100F1000218B01F400710843217F01F0380108435F
:100F200094F8201001F080010843218D01F4005154
:100F3000084321680860A069042101EA104094F880
:100F4000241001F010010843216848602068C1693D
:100F500021F40061C1616565012084F85100002021
:100F600070BD000010B586B0044614216846FFF736
:100F700087F913492068884220D11248002102686D
:100F800042F480520260006800F4805005900D48E1
:100F90001438026842F001020260006800F00100AB
:100FA0000590E02000900220CDE90101032003908C
:100FB0000520049069460448FFF73AFB06B010BDCF
:100FC0000030014044380240000002402DE9F84F53
:100FD000044690F8500000270A9E1D4692468B4614
:100FE0004FF0010901280ED0012084F85000FFF7CE
:100FF00015FC804694F85100616801280CD0B1F5C9
:10100000827F07D102E00220BDE8F88FA16809B90C
:10101000042801D00227C2E0BBF1000F27D0BAF1AB
:10102000000F24D01DB394F85100042802D00520ED
:1010300084F8510000206065C4F838A0E587A587D2
:10104000C4F830B0E586A586206460642068016835
:10105000490603D4016841F040010160E068B0F541
:10106000006F606805D0E8B3012D46D07FE001270E
:1010700095E008B1012D39D1206B21680088C86046
:10108000206B801C2063E08E401EE0862EE02068EE
:10109000816889070FD5E18E69B1B9F1010F0AD1D5
:1010A000216B0988C160206B801C2063E08E401E8C
:1010B000E0864FF0000920688168C9070CD0E18FF5
:1010C00051B1C068A16B0880A06B801CA063E08F49
:1010D000401EE0874FF00109FFF7A0FBA0EB0800DE
:1010E000B04200E009E001D3701C50D1E08E00282E
:1010F000CDD1E08F0028CAD13FE0206B2168007875
:101100000873206B401C2063E08E401EE0862EE0BA
:101110002068816889070FD5E18E69B1B9F1010FA7
:101120000AD1216B09780173206B401C2063E08E8B
:10113000401EE0864FF0000920688168C9070CD086
:10114000E18F51B1C068A16B0870A06B401CA06317
:10115000E08F401EE0874FF00109FFF75FFBA0EB37
:101160000800B04202D3701C01D010E07EB1E08EC6
:101170000028CDD1E08F0028CAD142463146204612
:1011800000F080FB28B101272020606507E00327DD
:1011900005E0A06818B92068C16880680090012047
:1011A00084F85100002084F8500038462CE710B530
:1011B000401EB0F1807F01D3012010BD4FF0E0242C
:1011C00060610F21601700F023FE0020A06107205E
:1011D0002061002010BD70477047000070B590F886
:1011E0003C20012A2CD0012480F83C40022280F8C7
:1011F0003D2003685A689D6822F070060A683243F1
:101200005A60104B02689A420ED0B2F1804F0BD058
:101210000D4B9A4208D00D4B9A4205D00C4B9A4286
:1012200002D00C4B9A4204D1496825F0800319433F
:10123000916080F83D40002180F83C10084670BD68
:10124000022070BD00000140000400400008004082
:10125000000C00400040014010B5040003D094F899
:101260003D0010B107E0012010BD002084F83C00D3
:10127000204600F01FF8022084F83D00211D206860
:1012800000F0E2FB012084F8460084F83E0084F878
:101290003F0084F8400084F8410084F8420084F85C
:1012A000430084F8440084F8450084F83D000020A1
:1012B00010BD000008B500680B49884212D10B48E8
:1012C000016841F0010101600068002200F00100A6
:1012D000009011461920FFF711FBBDE808401920C6
:1012E000FFF7FEBA08BD000000000140443802408C
:1012F00090F83D10012901D001207047022180F8AB
:101300003D100168CA6842F00102CA6000680E49D7
:1013100088420ED0B0F1804F0BD00C49884208D0E3
:101320000B49884205D00B49884202D00A498842BD
:1013300004D1816801F00701062903D0016841F05A
:1013400001010160002070470000014000040040DE
:1013500000080040000C00400040014070B5044609
:1013600090F83C000025012817D0012684F83C6045
:10137000022084F83D002068826822F0770222F47F
:101380007F4282600868502838D00DDC20284FD07A
:1013900005DC90B3102811D14AE0022070BD30283E
:1013A00046D040280AD13BE060282FD070280DD0CD
:1013B000B0F5805F03D0B0F5005F12D0012584F84E
:1013C0003D60002084F83C00284670BDCB68D1E920
:1013D0000121206800F084FB2068816841F07701DA
:1013E00009E0CB68D1E90121206800F079FB206891
:1013F000816841F480418160E1E719E0CA68496889
:10140000206800F07FFB5021206806E0CA68496828
:10141000206800F088FB6021206800F06BFBCEE7BD
:10142000CA684968206800F06DFB40212068F4E735
:10143000226801461046F0E7704770B50446006820
:1014400001694FF00005C943890715D4C168C94334
:10145000890711D4E91E0161012020772068806985
:101460008007204602D0FFF7E7FF04E000F098F87D
:10147000204600F096F8257720680169C94349079E
:1014800017D4C168C943490713D46FF0040101613F
:10149000022020772068806910F4407F204602D027
:1014A000FFF7CAFF04E000F07BF8204600F079F86F
:1014B000257720680169C943090716D4C168C94363
:1014C000090712D46FF00801016104202077206819
:1014D000C0698007204602D0FFF7AEFF04E000F0AD
:1014E0005FF8204600F05DF8257720680169C94360
:1014F000C90617D4C168C943C90613D46FF01001D7
:101500000161082020772068C06910F4407F2046E0
:1015100002D0FFF791FF04E000F042F8204600F00F
:1015200040F8257720680169C943C90708D1C16817
:10153000C943C90704D1891E0161204600F032F871
:1015400020680169C943090609D4C168C94309066D
:1015500005D46FF0800101612046FFF73CFE206852
:101560000169C943490609D4C168C943490605D47C
:101570006FF040010161204600F015F82068016914
:10158000C94389060BD4C168C943890607D46FF0E3
:10159000200101612046BDE87040FFF71DBE70BD0F
:1015A000704770477047704770B5040004D094F8D6
:1015B0003D00002510B106E0012070BD84F83C50CC
:1015C000204600F023F8242084F83D002068C168FC
:1015D00021F40051C160204600F0B8FA206801698A
:1015E00021F4904101612068416921F02A014161A3
:1015F0002068C16841F40051C1602564202084F84E
:101600003D0084F83E00002070BD000010B586B09B
:10161000044614216846FEF733FE134920688842C9
:1016200020D112480021026842F4003202600068B2
:1016300000F4003005900D481038026842F00102B5
:101640000260006800F0010005900C20009002206C
:10165000CDE9010103200390072004906946044866
:10166000FEF7E6FF06B010BD0044004040380240DF
:10167000000002402DE9F843044690F83D001F4663
:1016800016460D4620284CD1C5B1BEB194F83C0099
:10169000012846D0012084F83C004FF00008C4F82F
:1016A0004080212084F83D00FFF7B8F8A6848146E9
:1016B000E684A068B0F5805F03D004E00120BDE8B7
:1016C000F883206928B12E465FF0000584F83C803D
:1016D0000EE00026FAE78021204600F0BDFAA0B90E
:1016E000AEB116F8010B21684860E08C401EE08422
:1016F000E08C4B464FF0000200970028EBD14FF0F2
:101700004001204600F0A8FA30B10320D7E735F8B1
:10171000020BC0F30800E6E7202084F83D0000201B
:10172000CDE70220CBE7FEE730B587B0142168464D
:10173000FEF7A6FD1F480024016841F00401016086
:10174000016801F004010591016841F08001016028
:10175000016801F080010591016841F0010101601B
:10176000016801F001010591016841F00201016089
:101770000068114D00F0020005900022402128462B
:10178000FFF746F84FF4005000904FF40410CDE9F5
:10179000010469460948FEF74BFF402000900120F4
:1017A000CDE90104694628460394FEF741FF07B0DE
:1017B00030BD000030380240000402400008024002
:1017C0000E4810B50C4901604FF482714160002150
:1017D0008160C1604FF400720161C0E90512C1610E
:1017E0000162416281620A21C162FFF75CFB00284D
:1017F00001D072B6FEE710BD003001403811002064
:1018000010B586B000241848009401940294039403
:1018100004941449059401606421C0E9011440F264
:101820001F31C0E903148021C0E90541FFF714FD11
:1018300008B172B6FEE74FF48050009069460A483E
:10184000FFF78CFD08B172B6FEE7049404A90648C0
:101850000594FFF7C3FC002801D072B6FEE706B07E
:1018600010BD00000000014090110020FEE7FEE7DF
:1018700000F00F00092801D830307047373070472A
:101880007047000038B504461248134B0068B0FB9F
:10189000F3F04FF47A73584300906068B0F5827F9C
:1018A0000DD10B46009200228021204600F016F850
:1018B00070B1606D40F020006065032038BD009875
:1018C00030B1401E009020688068C0430006F6D505
:1018D000002038BD7800002000366E012DE9F84365
:1018E0001E46914688460446089DFEF797FF401B1A
:1018F000351AFEF793FF074625480068C0F3CB3042
:10190000684338E0701C37D0FEF788FFC01BA84240
:1019100003D215B1009860B32CE02068416821F033
:10192000E00141606068B0F5827F0BD1A068B0F53E
:10193000004F02D0B0F5806F04D12068016821F01B
:1019400040010160A06AB0F5005F09D1206801681C
:1019500021F4005101602068016841F400510160E8
:10196000012084F85100002084F850000320BDE8D5
:10197000F8830025401E00902068816838EA010045
:1019800004D000214945BDD10020F0E70121F9E74D
:10199000780000207047FEF747BF000030B593B0D5
:1019A00030216846FEF76CFC14210CA8FEF768FC99
:1019B0001C480024016841F080510160006800F07B
:1019C000805011901848016841F44041016000685E
:1019D000022500F440401190012003901020049053
:1019E000009506950820CDE90740A0200990042025
:1019F0000A900B906846FFF79DF808B172B6FEE7B3
:101A00000F20CDE90C054FF48050CDE90E400221A6
:101A10000CA81094FEF7A4FF002801D072B6FEE7D0
:101A200013B030BD403802400070004002480168E9
:101A300041F470010160704788ED00E00148FFF754
:101A4000FCBC000090110020F0B502681D4B1E4C3C
:101A50009F031E4D1E4E984207D0B84205D0A042AB
:101A600003D0A84201D0B04204D122F0700C4A68E1
:101A700042EA0C02984210D0B8420ED0A0420CD0DC
:101A8000A8420AD0B04208D0124CA04205D0124C55
:101A9000A04202D0114CA04203D122F44074CA6883
:101AA00022434C6922F08002224302608A68C262AB
:101AB0000A688262984201D109690163012141618A
:101AC000F0BD00000000014000040040000800409C
:101AD000000C00400040014000440140004801402B
:101AE00010B5846842EA032224F47F440A43224367
:101AF000826010BD826822F070020A4342F0070142
:101B00008160704710B5036A046A24F0010404621E
:101B1000846924F0F00444EA021423F00A020A4320
:101B20008461026210BD10B5036A23F010030362E2
:101B30008369046A23F4704343EA023224F0A00369
:101B400043EA01118261016210BD000070B50446D4
:101B500000680169E26821F4405111430161216983
:101B6000A068E26908436169114308432168CA68B3
:101B700049F20C639A430243CA6020684169A26932
:101B800021F440711143416131492068884202D0FB
:101B90003049884202D1FEF78DFF01E0FEF77AFF5F
:101BA000E2690023192164253226B2F5004F6268EC
:101BB00028D0A0FB0101930F9200FEF709FB01461C
:101BC000B0FBF5F06FF01802504301EB800006EB1C
:101BD0000010B0FBF5F000F0F002B1FBF5F002EB05
:101BE0000012B1FBF5F06FF01803584301EB8000D1
:101BF00006EB0010B0FBF5F000F00F002168104478
:101C0000886070BDA0FB010192185B41FEF7E0FA0D
:101C10000146B0FBF5F00201B1FBF5F06FF01803DF
:101C2000584301EB800006EBC000B0FBF5F000F07C
:101C3000F80002EB4002B1FBF5F0584301EB8000E5
:101C400006EBC000B0FBF5F000F00700D6E700009F
:101C500000100140001401402DE9F041984617465C
:101C60000E460446069D27E0681C25D02DB1FEF7E0
:101C7000D5FDA0EB0800A8421ED920680C3050E822
:101C8000001F21F4D07140E80012002AF5D120682D
:101C9000143050E8001F21F0010140E80012002A32
:101CA000F5D1202084F83D0084F83E00002084F81F
:101CB0003C000320BDE8F0812068006836EA00009F
:101CC00004D00020B842CFD00020F3E70120F9E78C
:101CD000FEE7000038B5010C8DF80010010A0D4C2C
:101CE0008DF801108DF80200A068804720698047B8
:101CF0009DF802008DF80200626A03216846904751
:101D0000A0698047054660698047E06880472846AB
:101D100038BD000084000020F8B50E46010C8DF897
:101D20000010010A0D4C8DF801108DF80200A0681A
:101D300015468047206980479DF802008DF8020013
:101D4000626A032168469047226A294630469047D6
:101D500060698047E0688047F8BD0000840000208B
:101D600038B5020C8DF80020020A8DF801200C4CC9
:101D70008DF802008DF80310A06880472069804725
:101D80009DF80200042140F004008DF80200626A10
:101D90006846904760698047E068804738BD00002A
:101DA00084000020F8B50E46010C8DF80010010AE1
:101DB0000E4C8DF801108DF80200A0681546804782
:101DC000206980479DF80200032140F004008DF84F
:101DD0000200626A68469047626A29463046904728
:101DE00060698047E0688047F8BD000084000020FB
:101DF0000FB4054B10B503A9044A029800F028F867
:101E000010BC5DF814FB00004528000834010020D8
:101E10000907090E002804DB00F1E02080F8001417
:101E2000704700F00F0000F1E02080F8141D7047AB
:101E300002E008C8121F08C1002AFAD17047704793
:101E4000002001E001C1121F002AFBD170470000F1
:101E50002DE9FF4F8DB00F460546002606E02528E8
:101E60000BD0DDE90F1290476D1C761C28780028F6
:101E7000F5D111B03046BDE8F08F0024A246A1464E
:101E80000122EC4900E0044315F8013F203B02FA2F
:101E900003F00842F7D128782A2810D06FF02F02DB
:101EA0002878A0F13001092914D80AEB8A0102EB45
:101EB000410144F0020400EB010A6D1CF0E701CF80
:101EC0005FEA000A03D544F40054CAF1000A44F062
:101ED00002046D1C28782E2817D115F8010F44F044
:101EE00004042A280ED06FF02F022878A0F13001C8
:101EF00009290AD809EB890102EB410100EB01092C
:101F00006D1CF2E757F8049B6D1C28786C280FD0E5
:101F100006DC4C2817D068280DD06A2814D104E0BC
:101F2000742810D07A280FD10DE044F400140AE090
:101F300044F4801401E044F440146978814202D1F1
:101F400004F580146D1C6D1C2A786E2A1FD00CDCE1
:101F5000632A31D004DC002A8BD0582A11D1A3E0A7
:101F6000642A68D0692A0CD165E0732A2ED004DC7B
:101F70006F2A73D0702A04D19BE0752A6FD0782A1B
:101F80006ED01046DDE90F129047761C50E1C4F385
:101F90000250022806D0032809D0042801CF09D016
:101FA000066045E101CFF117C0E9006140E101CFD2
:101FB00006803DE106703BE117F8040B8DF8000048
:101FC00000208DF80100EB46012003E057F804BB28
:101FD0004FF0FF3061074FF0000102D40DE008F12F
:101FE0000101884649450FDA8045F8DB1BF80810E7
:101FF0000029F4D108E008F1010188468142FADBAA
:102000001BF808100029F6D1DDE90F23AAEB080020
:102010008146214600F036F9304400EB080604E022
:10202000DDE90F121BF8010B9047B8F10108F7D258
:1020300021464846F7E00A21C4F302534FF0000B53
:102040000891022B04D001CFC117032B09D00AE05D
:10205000FF1D27F00707F7E8020108E032E01FE064
:1020600020E000B2C117042B01D140B2C117031EFA
:1020700071F1000307DA4FF0000CD0EB0C006CEBB1
:1020800001012D2302E0230504D52B238DF82430F4
:10209000012303E0E30701D02023F7E7984658E047
:1020A0000A2110E010210EE010204FF0000B0890E4
:1020B0000CE010214FF0000B44F004044FF008092D
:1020C000089103E008214FF0000B0891C4F302537C
:1020D000022B04D001CF0021032B06D006E0FF1D08
:1020E00027F00707F7E8020103E080B2042B00D1D4
:1020F000C0B24FF0000823072BD5702A07D0DDF8B7
:1021000020C08CF0100C5CEA0B0C05D00EE04023D4
:102110008DF82430012308E050EA010306D0302373
:102120008DF824308DF8252002239846DDF820C054
:102130008CF0080C5CEA0B0C0BD150EA010301D1C6
:10214000630706D530238DF824304FF00108A9F13C
:102150000109582A04D038A20B9208AA0A920BE06F
:102160003AA2F9E75B46089AFEF732F80B9B9B5CB4
:102170000A9A521E0A92137050EA0102F2D10A988A
:10218000ADEB000000F1200B600702D524F4803491
:1021900001E04FF00109D94502DDA9EB0B0000E099
:1021A000002000EB0B0141440890AAEB010AE00378
:1021B00006D4DDE90F232146504600F063F80644BB
:1021C0004FF0000908E009A911F80900DDE90F1234
:1021D000904709F10109761CC145F4DBE0030CD5F9
:1021E000DDE90F232146504600F04CF8064404E098
:1021F000DDE90F1230209047761C0899481E0890A0
:102200000029F5DC08E00A980A990078491C0A912F
:10221000DDE90F129047761CBBF10001ABF1010B19
:10222000F1DC21465046DDE90F2300F019F80644A1
:102230006D1C1BE609280100303132333435363746
:102240003839616263646566000000003031323302
:1022500034353637383941424344454600000000A2
:102260002DE9F041044600251E461746880404D493
:1022700005E039462020B0476D1C641EF9D528467C
:10228000BDE8F0812DE9F041044600251E46904648
:10229000C80301D5302700E02027880404D505E0D5
:1022A00041463846B0476D1C641EF9D52846BDE846
:1022B000F08100002DE9FC41154E3046FFF70AFD84
:1022C000054603213046FFF74BFD124B042141F236
:1022D0008830CDE90001DC1F11220FA1A07801F0A8
:1022E0000BFE074629463046FFF73AFD0D3709D069
:1022F00001F01CFBE069E169091A0229FBD3002007
:10230000BDE8FC8109A0FFF773FD0120F8E700009C
:1023100000044200CB000020434845434B5F495036
:102320005F434F4E464C4943540000000D0A3E2087
:10233000436865636B206C65617365642049502058
:102340002D204F4B0D0A000070B51A4C0125204678
:1023500094F90110002690F90000022917DAD4E957
:102360000721914223D2012804D0022805D0042855
:1023700005D102E001F072FB01E001F069FCE661C9
:10238000E0690A3020626078401C60700FE001282C
:1023900004D0022805D0042807D102E026700025C9
:1023A00003E001F05BFB0120207001F03DFA2846BC
:1023B00070BD0000C400002070B50446082802D398
:1023C0004FF0FF3070BD41F2080000EB44100546AD
:1023D0001021FFF7C5FC2846FFF77CFC0028FAD146
:1023E00042F6080000EB4410FF21FFF7B9FC0D494D
:1023F0000120A0404A880C4B82434A80002223F8E7
:1024000014208B888343881D8B80025543F208007B
:1024100000EB44142046FFF75DFC0028FAD10120B0
:1024200070BD0000200100202C12002010B5184AB9
:102430000C46082828D2DFE800F004080C10141815
:102440001C21204602F0E4F91CE0204602F068F866
:1024500018E0206802F03AFA14E002F0BFF82060B9
:1024600010E0204602F050FA0CE0204602F0D2F8CC
:1024700008E021781046FFF773FC03E01046FFF7F1
:1024800029FC2070002010BD4FF0FF3010BD00006F
:10249000002C21002DE9F04114460F46082803D3F3
:1024A0004FF0FF30BDE8F081294E42F2084202EBC6
:1024B000401521784FF4816273886FF0090C02EBAC
:1024C00040120A2F41D2DFE807F0051115171F2629
:1024D0002D34363C01228240012901D019B134E06B
:1024E0001A43728023E09343738020E0C34003F0DB
:1024F000010015E0174900E0174901EB4010FFF714
:10250000E9FB8002208012E01F291ED842F6080253
:1025100002EB401009E042F2080101EB401011E02B
:10252000207004E01F2910D82846FFF719FC01206D
:10253000B8E7284606E001F00300012805D0104660
:10254000F3E71046FFF7C6FBEAE76046AAE700009C
:102550002001002008000200082002002DE9F047B9
:102560000C460D7803460021DFF898C1DFF89891FA
:10257000DFF898A1664E674F674A0846182B6FD25E
:10258000DFE803F00C1C2D33363E4145494D555BC9
:10259000686F7C899BA1A4A8ACB0B6B9680703D5C5
:1025A000FF216046FFF7DCFBA80703D5C52148469D
:1025B000FFF7D6FBE8071AD0FF210EE0680703D526
:1025C000CE216046FFF7CCFBA80703D53A21484649
:1025D000FFF7C6FBE8070AD0532150466AE04FF4E4
:1025E0000010FFF777FB400938E002F0E5F97CE0E6
:1025F00014B1204604F10801BDE8F04702F034B8F8
:1026000001F064FF09E0206801F0CCFE6DE0206875
:1026100002F0E4F869E001F06DFF206065E02088D9
:10262000010A3046FFF79CFB2178384642E03846E5
:10263000FFF750FB0546304627E015461046FFF7EA
:1026400049FB2178012902D020F0800131E040F0DF
:1026500080012EE01046FFF73DFBC009207044E0EA
:102660004CE02E4882782270C27862700279A270A3
:102670004279E27080792071617136E04FF44070E8
:10268000FFF728FB05464FF40070FFF723FB05EB2F
:102690000020208029E015461046FFF71BFB21781B
:1026A00011B1012903D020E020F0010101E040F048
:1026B00001012846FFF754FB17E01046FFF70AFB1D
:1026C00000F00100CAE702F071FA0EE0204602F0C5
:1026D00087FA0AE0204602F019FA06E0204602F0E6
:1026E00047FA02E0284602F0A9FA0020BDE8F08788
:1026F00002F032FAB2E702F027FAAFE74FF0FF300C
:10270000F4E7000000F4410000F5410000F641004C
:1027100000C5410000C641000005200084000020E3
:1027200010B5042208490948FFF73CFB064904227A
:1027300008310748FFF736FB03490422BDE8104083
:10274000091D0448FFF72EBBCB00002000384100D4
:10275000003441000030410010B5074C00212046F4
:10276000FFF7FEFA2046FFF7B5FABDE81040062253
:1027700002490348FFF716BB0004200004010020B3
:102780000020410010B5084C00212046FFF7E8FA70
:102790002046FFF79FFAFFF7C3FFBDE8104006226F
:1027A00002490348FFF7FEBA00042000040100209C
:1027B000002041002DE9F0410446082803D34FF0E2
:1027C000FF30BDE8F081600101270830FFF782FA91
:1027D00000F00300012801D0B81FF2E743F208001F
:1027E00000EB44100546FFF775FA38B341F20800D4
:1027F00000EB441006460821FFF7B2FA3046FFF717
:1028000069FA0028FAD10E48A740408807420CD048
:102810000020D6E73046FFF75DFA000709D52046CD
:10282000FFF7CAFD6FF00C00CBE742F2080000EBA7
:1028300044162846FFF74EFA0028EBD10120C0E7E6
:102840002001002038B504468DF800000A2301223B
:1028500069460248FEF70EFF204638BDD811002019
:102860000148806970470000C400002004490A78CC
:1028700002704A7842708A788270C978C170704755
:10288000D700002004490A7802704A7842708A789A
:102890008270C978C1707047CF00002004490A785F
:1028A00002704A7842708A788270C978C170704725
:1028B000CB00002004490A7802704A7842708A7876
:1028C0008270C978C1707047D30000202DE9F041B3
:1028D0000B4A014602EB41150A4A002002EB411463
:1028E00006462846FFF7F6F907462046FFF7F2F9B5
:1028F00000EB072000B2B042F2D1BDE8F081000049
:1029000008240200082502002DE9F0410B4A014687
:1029100002EB41150A4A002002EB41140646284604
:10292000FFF7D8F907462046FFF7D4F900EB072058
:1029300000B2B042F2D1BDE8F0810000080402000C
:10294000080502002DE9F04715460446082803D380
:102950004FF0FF30BDE8F087670143F208100837F9
:102960006FF0040900EB44166FF006080F2971D2CE
:10297000DFE801F0081B1D1F2746A554616569713A
:102980007E9F8C003846FFF7A5F900F0F0064D4811
:1029900000EB4410FFF79EF906434B484088E040A7
:1029A00000F0010046EAC00080E048484DE0484899
:1029B0004BE0484800EB4410FFF78CF906464648C8
:1029C00025E03846FFF786F900F00300012866D1BC
:1029D0003046FFF77FF9400708D54048102200EB4A
:1029E00044102946FFF798F9102007E03C480422DC
:1029F00000EB44102946FFF78FF90420287456E0B5
:102A0000384800EB4410FFF765F90646364800EBFE
:102A10004410FFF75FF906EB002035E03846FFF77A
:102A200059F900F00300012839D1304800EB441077
:102A3000FFF750F928E02046FFF766FF24E0204624
:102A4000FFF744FF20E043F2080000EB4410FFF7DB
:102A500041F92BE033E03846FFF73CF900F0030082
:102A600001281CD13046FFF735F900F007001DE0C2
:102A70003846FFF72FF9A0B13846FFF72BF9C0070A
:102A8000DDD11B4830F81400288010E03846FFF7ED
:102A900021F930B13846FFF71DF9C00703D0484689
:102AA00058E7404656E70848801D005D2870012021
:102AB00050E73846FFF70EF900F00F00F6E76FF029
:102AC000010047E708440100200100200808010038
:102AD000080401000811010008100100083001007D
:102AE0000820010008410100084001000888010099
:102AF0002C12002070B50646082802D34FF0FF3094
:102B000070BD43F2080000EB46100546FFF7E2F8FF
:102B1000132802D06FF0020070BD41F2080000EBF4
:102B2000461004460221FFF71BF92046FFF7D2F8B2
:102B30000028FAD12846FFF7CDF8142805D03046F2
:102B4000FFF73AFC6FF0030070BD012070BD00007C
:102B50002DE9FF47814600245B481F469246884680
:102B60002546022B14D0172F14D0C66801AA0A21BB
:102B70004846FFF7E7FE9DF90400002879D01328A6
:102B800079D04FF40065172806D01C283CD13CE0D2
:102B90004668EBE78668E9E702AA05214846FFF7A1
:102BA00079FC9DF80800C00707D001208DF80C00C3
:102BB00003AA04214846FFF76DFC6A4609214846EE
:102BC000FFF7C0FEBDF9000000287BDDA84201DD53
:102BD000ADF80050BDF900204146484600F0A0FC89
:102BE000002837DDADF800000AE0001B02B208EB58
:102BF0000401484600F022FE050027D4204404B218
:102C0000BDF90000A042F0D15CE06A4609214846C7
:102C1000FFF798FEBDF90000002824DDA84201DD81
:102C2000ADF80050BDF900204146484600F078FC60
:102C300000280FDDADF8000011E0001B02B208EB28
:102C40000401484600F0FAFD050006D54846FFF7A6
:102C5000B3FB284604B0BDE8F087204404B2BDF9B8
:102C60000000A042E9D14846FFF7A4FD0128F1D1B8
:102C700028E00CE0FFE74846FFF73CFF0128E9D1D8
:102C800033465246494611A0FFF7B2F81AE0022F28
:102C900004D00B2F12D0172F0BD103E00123524683
:102CA000194602E0012352460921484601F0F0F995
:102CB000C5B24D4506D04FF0FF30CBE70123524659
:102CC0000D21F2E70120C5E7AC00002025643A4C55
:102CD000697374656E2C2054435020736572766559
:102CE00072206C6F6F706261636B2C20706F7274F6
:102CF000205B25645D2061732025730D0A000000B0
:102D0000B0B00025FDF798FD464C2068C16841F041
:102D10002001C1602068C16841F04001C160FEF738
:102D20003DFEFEF701FDFEF74BFD3F4820604FF4EE
:102D3000E13060600020A0600C21E060C4E9040183
:102D4000A061E0612046FEF72FFC08B172B6FEE7F5
:102D5000FEF756FD01F002FE01F036FD01F0C4FC65
:102D600001F0E6FA314801F0D9FA314957220C4610
:102D70006846FDF75EFA2E496822103916A8FDF75D
:102D800058FA0DF1580C9CE80F0000F001F92848A2
:102D9000103890F8660010281ED057222146684649
:102DA000FDF747FA22496822103916A8FDF741FAC3
:102DB0000DF1580C9CE80F0000F080FA41F28834C5
:102DC000022322461B490020FFF7C2FE0100F7D56F
:102DD00019A0FFF70DF8FEE71EA0FFF709F8234939
:102DE0000720FDF7B5FA2349214A084600F0CAFC3E
:102DF000FDF7F2FA042808D058B1052DF8D91EA025
:102E0000FEF7F6FFFDF7F8FBFEE71FA0FEF7F0FF69
:102E1000D4E76D1CEDB2052DF1D829461EA0FEF7B2
:102E2000E7FFE5E7D811002000440040FD37000827
:102E30001200002038090020206C6F6F70626163FF
:102E40006B5F74637073206572726F72203A202515
:102E5000640A0000204448435020636C69656E7426
:102E60002072756E6E696E670A00000038010020DE
:102E7000AD440008054400082044484350206661E2
:102E8000696C65640A000000204448435020737553
:102E900063636573730A00002044484350207469DB
:102EA0006D656F7574206F63637572726564206100
:102EB0006E642072657472792025640A0000000037
:102EC0001CB5062269463048FEF726FF2F4A01202E
:102ED000D16B08704870062088700020C870936B12
:102EE0001B0E0B71936B1B0C4B71138F1B0A8B7199
:102EF00092F83830CB71D16B802308818B72C87205
:102F0000D16B02F14003087348738873C873087467
:102F100048748874C874087548758875C8750876CB
:102F200048768876C8761C780C775C784C779C78E5
:102F30008C77DC78CC771C7981F820405B7981F83C
:102F400021300623CC185B1CDBB22077102BF9D381
:102F5000D36B00215C18491CC9B284F82C004029AD
:102F6000F8D3D36B00215C18491CC9B284F86C00FB
:102F70008029F8D3D06B6321822200F8EC1F4270C5
:102F800053228270C1701CBD00204100C40000208B
:102F90000FB4022008B569468DF800000120FFF744
:102FA000DDFA02A90020FFF741FA01B05DF814FB39
:102FB000F0B5794C87B00025A078FFF787FC0104B5
:102FC000090C1FD006AA05A8CDE900020AB203AB7E
:102FD000A078E16B00F0F2FA86B2BDF814009DF81B
:102FE0000F10CDE9001002969DF80E309DF80D20CF
:102FF0009DF80C1069A0FEF7FBFEBDF814004328F5
:1030000003D075E0002007B0F0BD6349E06B4031AC
:10301000037F0A78934215D1427F4B789A4211D1AF
:10302000827F8B789A420DD1C37FCA78934209D1AF
:1030300090F820200B799A4204D190F82120497908
:103040008A4201D061A035E0534930310A1D0B7826
:103050002BB94F781FB98F780FB9CF7847B39DF848
:103060000C709F4211D19DF80D3091F801C063455D
:103070000BD19DF80E3091F802C0634505D19DF843
:103080000F3091F803C0634517D013789F420ED1DB
:103090009DF80D7053789F4209D19DF80E7093787A
:1030A0009F4204D19DF80F30D778BB4205D000E095
:1030B00003E052A0FEF79CFEA4E7F0308319F03B3A
:1030C00014E00678332E44D007DCAEB1012E18D0C0
:1030D000032E21D0062E06D124E0352E0ED0362E1A
:1030E00043D0FF2E06D04678801C30449842E8D367
:1030F00068B288E71846F9E7401CF7E78578C01CF6
:10310000F4E7254E87780F363770C77877700779E0
:10311000B7704779F7703CE01F4E477810F802CF40
:103120000B3604E047781C4E10F802CF133686F8B1
:1031300000C010F801CF86F801C010F801CF86F862
:1031400002C090F801C0801C384486F803C0001FFC
:10315000CCE78678A661C77807EB0626A6610779D3
:1031600007EB06260A26A66113E086780E70C6785D
:103170004E7006798E704679CE709DF80C60167090
:103180009DF80D6056709DF80E6096709DF80F606A
:10319000D670801DAAE70000C400002044484350B8
:1031A000206D657373616765203A2025642E256460
:1031B0002E25642E25642825642920256420726527
:1031C0006365697665642E200D0A00004E6F204D00
:1031D000792044484350204D6573736167652E2004
:1031E00054686973206D6573736167652069732026
:1031F00069676E6F7265642E0D0A0000416E6F7410
:103200006865722044484350207365766572207368
:10321000656E64206120726573706F6E7365206DDA
:103220006573736167652E20546869732069732024
:1032300069676E6F7265642E0D0A000010B50C464A
:10324000014610A0FEF7D4FD608842BA208841BA3A
:1032500010A0FEF7CDFDE08842BAA08841BA10A0C8
:10326000FEF7C6FD608942BA208941BA0CA0FEF77C
:10327000BFFDE08942BAA089BDE8104041BA0BA069
:10328000FEF7B6BD257320202020202020203A20E4
:1032900000000000253034583A2530345800000032
:1032A0003A253034583A2530345800003A25303425
:1032B000583A253034580D0A000000000FB400B50C
:1032C00085B000200390049006A90120FFF7AEF816
:1032D00003A90D20FFF742F933A0FEF789FD03A9EA
:1032E00041A0FEF785FD9DF81B009DF81D209DF86F
:1032F0001C108DE807009DF81A309DF819209DF8E4
:10330000181041A0FEF774FD9DF8210000909DF873
:1033100020309DF81F209DF81E1047A0FEF768FD85
:103320009DF8250000909DF824309DF823209DF8FD
:10333000221049A0FEF75CFD9DF8290000909DF841
:1033400028309DF827209DF826104BA0FEF750FD51
:103350009DF86D0000909DF86C309DF86B209DF8F5
:103360006A104DA0FEF744FD53A0FEF741FD0DF19C
:103370005A0161A0FFF762FF0DF12A0160A0FFF77B
:103380005DFF0DF13A0160A0FFF758FF0DF14A0112
:103390005FA0FFF753FF0DF16E015FA0FFF74EFF37
:1033A00005B05DF814FB00003D3D3D3D3D3D3D3D1C
:1033B0003D3D3D3D3D3D3D3D3D3D3D3D3D3D3D3D3D
:1033C0003D3D3D3D3D3D3D3D3D3D3D3D3D3D3D3D2D
:1033D0003D3D3D3D3D3D3D3D3D3D3D3D3D3D3D3D1D
:1033E0003D3D0D0A00000000202573206E657477B6
:1033F0006F726B20636F6E66696775726174696F57
:103400006E0D0A0A00000000204D414320202020BC
:1034100020202020203A20253032583A25303258BA
:103420003A253032583A253032583A253032583A17
:10343000253032580D0A000020495020202020203D
:1034400020202020203A2025642E25642E25642E5D
:1034500025640D0A00000000205375626E6574201B
:103460004D61736B203A2025642E25642E25642E31
:1034700025640D0A000000002047617465776179BA
:1034800020202020203A2025642E25642E25642E1D
:1034900025640D0A0000000020444E532020202007
:1034A00020202020203A2025642E25642E25642EFD
:1034B00025640D0A000000003D3D3D3D3D3D3D3D84
:1034C0003D3D3D3D3D3D3D3D3D3D3D3D3D3D3D3D2C
:1034D0003D3D3D3D3D3D3D3D3D3D3D3D3D3D3D3D1C
:1034E0003D3D3D3D3D3D3D3D3D3D3D3D3D3D3D3D0C
:1034F0003D3D0D0A0A00000020475736200000001D
:10350000204C4C4120000000204755412000000085
:10351000205355423600000020444E533600000030
:103520002DE9F0470646234814468A4600EB46102C
:10353000FEF7D0FB800200B2A04200DA044643F25C
:10354000080000EB46170120DFF86C9000FA06F83F
:103550003046FFF7BBF905463846FEF7BBFB172898
:1035600009D01C2807D010B93046FEF725FF6FF0B0
:103570000600BDE8F087B5B1A54200DA2C46224628
:103580005146304600F06AFE41F2080000EB46105A
:1035900005464021FEF7E4FB2846FEF79BFB00288A
:1035A000FAD12046E5E7B9F8021018EA010FCFD0AA
:1035B0000020DEE708200200200100202DE9FF4F57
:1035C000DFF8B89187B00446DDE914B739F8141074
:1035D000DFF8AC8141F20800924600EB4415002967
:1035E00078D143F2080000EB44160120A04004907B
:1035F0002046FFF76BF900903046FEF76BFB58B39F
:10360000009870B3002108F80410022201A9204696
:1036100000F024FE28464021FEF7A2FB2846FEF7D4
:1036200059FB0028FAD19DF804009DF8051000F020
:10363000070001EB0026600108300390FEF74AFB0B
:1036400000F00F000A281CD014DC022819D003282F
:1036500017D0072812D132E06FF003000BB0BDE89D
:10366000F08FFFE746490498891F49880842BFD078
:103670000020F3E70B2804D00E2802D06FF00400DE
:10368000ECE70A98002870D09DF8040000F0F800DC
:1036900008F80400000601D5102000E0042038706E
:1036A000C2B220460A9900F0D9FD28464021FEF713
:1036B00057FB2846FEF70EFB0028FAD10BE040F23C
:1036C000EA50B61E864206DD2046FEF775FE6FF410
:1036D0007A70C3E727E029F8146018F8041041F065
:1036E000020108F804100398FEF7F4FA00F0030052
:1036F000022818D1BBF1000F37D0022201A92046C1
:1037000000F0ACFD9DF805009DF8041000EB0121D0
:10371000ABF8001028464021FEF722FB2846FEF7B2
:10372000D9FA0028FAD139F914604F465046564567
:1037300000DD064632462046089900F08FFD2846F7
:103740004021FEF70DFB2846FEF7C4FA0028FAD107
:1037500037F81400801B00B227F8140018F8041082
:1037600030B141F0040105E0FFE76FF0090075E7B3
:1037700041F0080108F8041030466FE72C120020D1
:103780002601002010B5084B064C5C62074C9C6279
:10379000074CDC6200B1586201B19962002A00D086
:1037A000DA6210BD21270008C40000208527000828
:1037B00059270008044A00B90448106109B1516151
:1037C000704703485061704784000020F3430008AD
:1037D000F1430008064A10B513889C05FDD500B9D1
:1037E0000448906109B1D16110BD0348D06110BD9A
:1037F000840000205F4900088D490008094810B581
:103800000188491C0180018840F2E732914207D3C8
:1038100000210180FCF7FAFEBDE81040FCF7FEBE77
:1038200010BD00000000002003480021C1610A22F1
:103830000262417070470000C40000202DE9F05F73
:103840000546384890468B4600EB4510FEF742FA95
:10385000800200B2804500DD804643F2080001246A
:10386000314E6FF0060A00EB4517AC402846FFF7D3
:103870004BF881463846FEF72DFA172806D01C284B
:1038800004D050BB2846FEF797FD26E04046C845C9
:1038900003DD70880442E9D026E0024659462846F6
:1038A00000F00EFDB088B146044226D042F2080076
:1038B00000EB45163046FEF70DFAC00616D4384622
:1038C000FEF708FA17280BD01C2809D00028D9D0F9
:1038D0003046FEF7FFF90007D4D45046BDE8F09F0C
:1038E000B9F802000442E5D00020F7E742F60800EC
:1038F00000EB45101021FEF733FA41F2080000EB0F
:10390000451005462021FEF72BFA2846FEF7E2F97E
:103910000028FAD1B9F8041040460C43A9F8044035
:10392000DCE7000008000200200100203EB5FFF7A0
:10393000C7FA424800213D22C06B8172C172352115
:1039400080F8F010012180F8F110042180F8F210C5
:10395000072180F8F32080F8F410012180F8F51099
:10396000364940310A7880F8F6204A7880F8F72006
:103970008A7880F8F820CA7880F8F9200A7980F8E7
:10398000FA20497980F8FB10322180F8FC100421DC
:1039900080F8FD102949C91D097880F8FE102749D3
:1039A000C91D497880F8FF102449C91D897880F81D
:1039B00000112249C91DC97880F80111362180F80B
:1039C0000211042180F803111C493031097880F874
:1039D00004111A493031497880F8051117493031FE
:1039E000897880F8061115493031C97880F80711B7
:1039F000FF2180F808111D2100224FF49C73441808
:103A0000491C84F8EC209942F9DBFF208DF808006E
:103A10008DF809008DF80A008DF80B0008A0FEF75C
:103A2000E7F904214320CDE90001044802AB4FF43B
:103A30000972C16B807800F05FFA3EBDC4000020BF
:103A40000D0A3E2053656E64204448435056345F4F
:103A50004445434C494E450D0A000000FEB5FFF7B2
:103A60002FFA744800213522017041708170C170B5
:103A7000001D0126017041708170C17034386D4B9A
:103A8000C06B10331C4680F8F02080F8F16080F89D
:103A9000F2603D2280F8F320072280F8F42080F8BD
:103AA000F5601A7880F8F6201A460625527880F8D4
:103AB000F720A47880F8F8401C460C22E47880F8BF
:103AC000F9401C460F27247980F8FA401C4603F180
:103AD000060C647980F8FB4080F8FC2080F8FD102B
:103AE000122207E000EB020E521C491C8EF8EC403B
:103AF00092B289B21CF80140002CF3D1D8780009A9
:103B0000FDF7B6FE4B4C303CD4F83CC09444521CFC
:103B10008CF8EC0092B2D878FDF7AAFED4F83CC03D
:103B20009444521C8CF8EC00187992B20009FDF70D
:103B30009FFED4F83CC09444521C8CF8EC0092B226
:103B40001879FDF795FED4F83CC09444521C8CF8CB
:103B5000EC00587992B20009FDF78AFED4F83CC017
:103B60009444521C8CF8EC0092B25879FDF780FE18
:103B7000E36B03EB020C521C8CF8EC0092B2881D34
:103B8000511A194481F8E500E06B37218318521C63
:103B900083F8EC1091B24218491C82F8EC5089B2BB
:103BA0004218491C89B2431882F8EC600322491C70
:103BB00083F8EC2089B24218491C82F8EC5089B293
:103BC0004218491C89B2431882F8EC703A2283F8F3
:103BD000EC20491C89B243183B2283F8EC20491C95
:103BE00089B24318FF22491C83F8EC2089B20023D4
:103BF0004FF49C7504E04618491C86F8EC3089B2F5
:103C0000A942F8D38DF808208DF809208DF80A20F4
:103C10008DF80B2008A0FEF7EBF804214320CDE936
:103C2000000102AB4FF40972A078E16B00F064F977
:103C3000FEBD0000F40000203E2053656E64204469
:103C40004843505F444953434F5645520D0A0000C4
:103C50002DE9FE4FFFF734F9DFF880C2FF270CF1A2
:103C600007029CF90000002602F12904032841D034
:103C700004283FD08DF808708DF809708DF80A700F
:103C80008DF80B70DCF83C0035214FF0010980F80D
:103C9000F01080F8F1904FF0030A80F8F2A03D2177
:103CA00080F8F3108D4B072180F8F410403380F832
:103CB000F590197880F8F61019460425497880F8AF
:103CC000F71019464FF00C0B897880F8F810194658
:103CD000C97880F8F9101946097980F8FA10194660
:103CE000497980F8FB109DF80B801021B8F1FF0F87
:103CF00019D03BE0DCF83C008672C6721178017383
:103D00005178417391788173D178C17320788DF89F
:103D1000080060788DF80900A0788DF80A00E07836
:103D20008DF80B00AEE7322180F8FC1080F8FD50D2
:103D3000117880F8FE10517880F8FF10917880F8A3
:103D40000011D17880F80111362180F8021180F835
:103D50000351217880F80411617880F80511A17869
:103D600080F80611E17880F807111C215A464418A2
:103D7000491C84F8EC204218584C82F8EC60002270
:103D80004634E346491C06E000EB0108491C88F86C
:103D9000ECC089B2521C14F802C0BCF1000FF3D180
:103DA000D8780009FDF764FDDBF83CC05C468C4424
:103DB000491C8CF8EC0089B2D878FDF759FDD4F88D
:103DC0003CC08C44491C8CF8EC00187989B200097D
:103DD000FDF74EFDD4F83CC08C44491C8CF8EC0037
:103DE00089B21879FDF744FDD4F83CC08C44491CD5
:103DF0008CF8EC00587989B20009FDF739FDD4F848
:103E00003CC08C44491C8CF8EC0089B25879FDF711
:103E10002FFDE36B03EB010C491C8CF8EC0089B21D
:103E2000901D8A1A1A4482F8E500E06B3722431885
:103E3000491C83F8EC2089B24318082283F8EC204F
:103E4000491C89B24318491C83F8EC9089B2431885
:103E5000491C83F8ECA089B24318062283F8EC20B1
:103E6000491C89B243180F2283F8EC20491C89B2FF
:103E700043183A2283F8EC20491C89B243183B22AC
:103E800083F8EC20491C89B243181F2283F8EC20E8
:103E9000491C89B243182122491C83F8EC2089B2BD
:103EA0004218491C82F8EC7089B24FF49C7203E00E
:103EB0004318491C83F8EC609142F9DB08A0FDF738
:103EC00097FF4320CDE9000502AB4FF40972A078BB
:103ED000E16B00F011F8BDE8FE8F0000C400002087
:103EE0003E2053656E6420444843505F524551550F
:103EF0004553540D0A0000002DE9FF5F0446DDE93B
:103F00000E7940019B4616464FF020084FF0010AFB
:103F10000830FDF7DFFE0546072822D06FF00400C9
:103F2000B9F1100F06D0B9F1040F0FD0C01F04B0C3
:103F3000BDE8F09F2907FAD54248102200EB441053
:103F40005946FDF72FFF4FF0A0080AE00A2DEED0EA
:103F50000B2DECD03C48042200EB44105946FDF7F1
:103F600021FF05F0030002280CD187B33748390A36
:103F700000EB4410FDF7F4FE3548F9B200EB4410B5
:103F8000FDF7EEFE334800EB4410FDF7A3FE4FF6BD
:103F9000FF7101EA8020864200DD06B20AFA04F9C8
:103FA00043F20800DFF8B0A000EB44152046FEF70E
:103FB000ABFC87B22846FDF78DFE60B1BE420DDD39
:103FC000BAF8021019EA010FF0D00020AFE7FFE7BE
:103FD0006FF00A00ABE76FF00300A8E73246204617
:103FE000019900F06DF941F2080000EB441007461A
:103FF0004146FDF7B5FE42F6080000EB4415384691
:10400000FDF768FE0028FAD142F2080000EB4414E4
:104010002046FDF75FFEC10608D528461021FDF7B2
:104020009FFE0EA0FDF7E4FE304680E70007EFD5C7
:1040300028460821FDF794FE0EA0FDF7D9FE6FF08B
:104040000C0074E70830010008200100084001005E
:104050000841010008000200200100205B444542A5
:1040600055475D20536E5F49525F53454E444F4B59
:10407000200D0A005B44454255475D20536E5F4961
:10408000525F54494D454F5554200D0A0000000021
:104090002DE9FF471E46174688460446082804D3E4
:1040A0004FF0FF3004B0BDE8F08708F00F0164481E
:1040B000DFF890916FF00B0A6D460F2959D2DFE8B7
:1040C00001F058081616585858165828161658371A
:1040D000160004222946FDF71FFE002108462A5C2F
:1040E000401C1144C0B289B20428F8D3E9B3710767
:1040F0006FF00500D6D4CEB34146B8F1090F43D0D6
:104100003ADC012940D00329CCD0B8F1070F3FD1C8
:1041100038E0102229464846FDF7FEFD00210846FA
:104120002A5C401C1144C0B289B21028F8D3DDE7E4
:1041300004222946FDF7F0FD002108462A5C401CB8
:104140001144C0B289B20428F8D371B11022694673
:104150004846FDF7E1FD002108462A5C401C114459
:10416000C0B289B21028F8D3C0E700E010E0504692
:1041700098E76FF0040095E70B2993D0B8F10D0F85
:1041800006D101E0B10701E006F09001002989D1D4
:104190002046FEF711F9600106F0F0014FF0010929
:1041A00041EA08010830FDF7DBFD274806F003016E
:1041B00000EB4410FDF7D4FD244D57B92F88781C2F
:1041C00080B2A0F57F412880F03902D14FF48060A1
:1041D00028801F48390A00EB4410FDF7C1FD1D4837
:1041E000F9B200EB4410FDF7BBFD41F2080000EB13
:1041F000441007460121FDF7B3FD3846FDF76AFD7F
:104200000028FAD109FA04F0698806F00102814316
:10421000A2400A436A80A9888143A9800E490020F0
:1042200021F814000949891D085543F2080000EBE4
:1042300044152846FDF74EFD0028FAD060B231E75C
:1042400000384100004041000844010020010020E6
:1042500008140100081501002C1200202DE9F04778
:104260005FEA02088946064624D0134800EB46154B
:104270002846FDF72FFD0746104800EB4614204660
:10428000FDF728FD07EB002007B2380200EB4610CF
:10429000424649461830FDF73FFD07EB0806204629
:1042A000C6F30721FDF75CFDF1B22846BDE8F047F3
:1042B000FDF756BDBDE8F087082902000828020076
:1042C0002DE9F04706461348904600EB461589460F
:1042D0002846FDF7FFFC07460F4800EB4614204632
:1042E000FDF7F8FC07EB002007B2380200EB4610A0
:1042F000424649461030FDF755FD07EB08062046BB
:10430000C6F30721FDF72CFDF1B22846BDE8F047C2
:10431000FDF726BD080D0200080C020002490860E6
:104320000248FCF7E5BF000030010020901100209A
:1043300070B54FF480742046FDF7CCFC0546002094
:10434000FDF7C8FC05EB002081B2B1F5C24F0CD0DF
:104350002046FDF7BFFC04460020FDF7BBFC04EB44
:10436000002102A0FDF744FDFEE770BD204143435C
:1043700045535320455252203A2056455253494FF7
:104380004E20213D203078363130302C207265614E
:10439000642076616C7565203D2030782530327858
:1043A0000A0000002DE9F041C1B2C0F30726C0F3B6
:1043B00007480C48FDF7D4FC0024012542F6080705
:1043C00005FA04F0304204D007EB4410FF21FDF75A
:1043D000C7FC641C082CF3DB4146BDE8F0410248F1
:1043E000FDF7BEBC0008210000282100704770477F
:1043F00070477047012240210148FCF709BA0000CC
:104400000004024010B51F4CB0B0A01DFEF746FAE4
:1044100004F10E00FEF736FA04F10A00FEF74AFA3C
:1044200004F15200FEF722FA102084F8660004F12D
:10443000100157220C466846FBF7FBFE6822114923
:1044400016A8FBF7F6FE0DF1580C9CE80F00FEF7DE
:104450009FFD572221466846FBF7EBFE682209497B
:1044600016A8FBF7E6FE16AC94E80F00FEF726FF51
:10447000FEF7F6F930B00146BDE8104002A0FDF7A6
:10448000B7BC0000020000202044484350206C6567
:10449000617365642074696D65203A20256C642021
:1044A0007365636F6E64730A0000000001A0FDF77E
:1044B0009FFCFEE720436F6E666C69637420495071
:1044C0002066726F6D20444843500A0010B50748BB
:1044D000FDF700FC04040648FDF7FCFB44EA002459
:1044E0004FF40410FDF7F6FB204310BD000221003D
:1044F0000001210010B50748FDF7ECFB0404064855
:10450000FDF7E8FB44EA00240448FDF7E3FB204301
:1045100010BD00000024210000142100000421002F
:1045200070B504460146002506222248FDF7F4FB3B
:10453000042204F10E012048FDF7EEFB042204F1F1
:104540000A011E48FDF7E8FB0422A11D1C48FDF7E7
:10455000E3FB102204F142011A48FDF7DDFB1022B3
:1045600004F132011848FDF7D7FB102204F11201C3
:104570001648FDF7D1FB102204F122011448FDF783
:10458000CBFB14486219415D6D1CEDB282F85210EC
:10459000042DF7D31049002023180A5C401CC0B238
:1045A00083F856201028F7D30A48401E007884F874
:1045B000660070BD00204100003041000034410021
:1045C000003841000070410000604100004041009F
:1045D000005041007D0000201C12002010B50A4848
:1045E000FDF778FB04460948FDF774FB00EB042453
:1045F0004FF48000FDF76EFB00EB04440448FDF728
:1046000069FB00EB046010BD000840000009400099
:104610000004400070B504460E48FDF75BFB2070B7
:104620000D48FDF757FB05464FF48400FDF752FB9C
:1046300005EB002060800948FDF74CFB207108481D
:10464000FDF748FB05460748FDF744FB05EB002056
:10465000E08070BD0004420000014200000C4200F6
:1046600000094200000842002DE9F0410D460646CF
:10467000002400F0A1F94FF0FF38A6B10022B05C91
:10468000204444B2102C16DC521C52B2082AF6DB2D
:10469000134F002407EB4410315DFDF761FB641CF0
:1046A00064B2082CF6DBC5B1002108462A5C11442F
:1046B00049B2102902DD4046BDE8F081401C40B2FD
:1046C0000828F3DB074E002406EB4410295DFDF7B4
:1046D00047FB641C64B2082CF6DB0020ECE700000A
:1046E000080002000820020000B585B00122402128
:1046F0001448FCF78DF814491448FFF75BF8144987
:104700001448FFF767F8144B0DF1040C0FCB8CE83D
:104710000F0001A90420FDF721FF401C01D10FA0CB
:104720000CE069461720FDF719FF401C05D09DF8E5
:1047300000000028F5D005B000BD0FA0FDF758FB24
:10474000F9E7000000040240F5430008CD470008E7
:10475000E94A0008954700087C4C00082057367845
:10476000303020696E697469616C697A65642066AD
:1047700061696C0A0000000020556E6B6E6F776EE9
:1047800020504859206C696E6B2073746174757386
:104790000A0000000EB500208DF80400FF208DF8FF
:1047A00008000848FCF77CFB0128FAD10A20009099
:1047B000012301AA02A90348FCF708FC9DF80400A4
:1047C0000EBD00003811002070470000002240217B
:1047D0000148FCF71DB800000004024070B5C1B2EA
:1047E000C0F30724C0F307450648FDF7B9FA214690
:1047F0000548FDF7B5FA2946BDE870400348FDF7C6
:10480000AFBA0000000421000014210000242100A0
:1048100070B504460146002506222248FDF7C2FA7B
:10482000042204F10E012048FDF7BCFA042204F131
:104830000A011E48FDF7B6FA0422A11D1C48FDF727
:10484000B1FA102204F142011A48FDF7ABFA102226
:1048500004F132011848FDF7A5FA102204F1120103
:104860001648FDF79FFA102204F122011448FDF7C3
:1048700099FA1448611991F8521041556D1CEDB226
:10488000042DF7D310490020221892F856200A541C
:10489000401CC0B21028F7D30A4994F86600491E9C
:1048A000087070BD0020410000304100003441001C
:1048B00000384100007041000060410000404100AC
:1048C000005041007D0000201C12002010B504465D
:1048D000C1B20A48FDF744FAC4F307210848FDF7BE
:1048E0003FFAC4F307414FF48000FDF739FA210E77
:1048F000BDE810400348FDF733BA0000000840004F
:10490000000940000004400010B5044601780E483C
:10491000FDF726FA6088010A4FF48400FDF720FABB
:10492000A1780A48FDF71CFA21790948FDF718FA21
:10493000E088010A0748FDF713FAA179BDE81040A5
:104940000548FDF70DBA00000004420000014200D6
:10495000000C42000008420000094200704700209D
:10496000704700002DE9F0410E4605460024064F31
:1049700005E0B8698047641C05F8010B24B2B44215
:10498000F7DBBDE8F08100008400002070470000E4
:104990002DE9F0410E4605460024064F06E000BF13
:1049A000F96915F8010B8847641C24B2B442F7DB9F
:1049B000BDE8F081840000202DE9F04F95B04FF460
:1049C0000010FDF787F90446CE213C48FDF7C8F9F1
:1049D0003B4D062210A92846FDF79EF9394E0422C8
:1049E00012A93046FDF798F9374F042213A938462B
:1049F000FDF792F9DFF8D480042214A94046FDF7B0
:104A00008BF9DFF8CC90102269464846FDF784F90F
:104A1000DFF8C0A0102204A95046FDF77DF9DFF8A9
:104A2000B8B0102208A95846FDF776F910220CA953
:104A30002A48FDF771F900212948FDF791F9284826
:104A4000FDF748F93A212748FDF78AF9062210A90F
:104A50002846FDF7A7F9042212A93046FDF7A2F96E
:104A6000042213A93846FDF79DF9042214A94046F3
:104A7000FDF798F9102269464846FDF793F9102290
:104A800004A95046FDF78EF9102208A95846FDF7F3
:104A900089F910220CA91148FDF784F9200603D5E5
:104AA000FF210648FDF75CF9600603D5C5210D48D6
:104AB000FDF756F915B0BDE8F08F000000F4410095
:104AC0000020410000304100003441000038410026
:104AD0000070410000604100004041000050410072
:104AE0000004200000F5410001B582B00648FCF743
:104AF000D7F90128FAD10A200090012301AA02A9BE
:104B00000148FCF763FA0EBD3811002070B5044669
:104B10004FF44010FDF7DEF805460A48FDF7DAF8D5
:104B2000000701D5022002E045F34010401C207030
:104B300045F30010401C607045F3C000401CA0709D
:104B400070BD0000001D300010B54FF44010FDF79F
:104B5000C1F800F0010010BD10B50448FDF7BAF827
:104B6000800601D5012010BD002010BD001D3000C1
:104B700070B504464FF44010FDF7ACF805460A48FE
:104B8000FDF7A8F8000701D5022002E045F3401028
:104B9000401C207045F34000401C607045F38000CD
:104BA000401CA07070BD0000001D300070B50A4DA3
:104BB0002846FDF78FF8094E40F001045321304696
:104BC000FDF7CEF821462846FDF7CAF83046BDE885
:104BD0007040FF21FDF7C4B8001D300000F6410011
:104BE00070B5054600780024124E022830460DD0DC
:104BF000FDF770F820F008013046FDF7B1F828788D
:104C0000012810D06878042440B108E0FDF762F86C
:104C100040F008013046FDF7A3F804E00624A87828
:104C200008B944F001042146BDE870400248FDF790
:104C300097B80000001D3000001C300070B5084D12
:104C400004462846FDF746F8012C06D020F0200146
:104C50002846BDE87040FDF783B840F02001F7E733
:104C6000001D3000000000000000000001020304ED
:104C70000607080900000000010203040202020204
:104C800002020202020202020202020249507634C9
:104C9000206D6F646500000049507636206D6F64AA
:104CA000650000004475616C204950206D6F64659B
:104CB00000000000D44C0008000000203801000073
:104CC000F8020008604D00083801002008150000B7
:104CD000401E000831100D08DC123456C0A80B6EBF
:104CE000FFFFFF19086401FE800009100208DCFFC5
:104CF000FE5757251928390101181A080187200184
:104D0000486048603488881032012908519324F49F
:104D100010080102573631303013ED431B08EF0401
:104D20001AF3041AF104135F491B088D041A650471
:104D30001A91042350C3138C4C1B0898041AA40422
:104D4000012069A4320A1321271B0885041A59047B
:104D50000116071157495A6E6574021604000000C7
:040000050800019955
:00000001FF
